:060000000A128A11122809
:10000800FE00030EF2000408F3000A08F40083124D
:1000180003137F08F5000A128A1116290A128A1199
:10002800152883136130FD000030FE00FA30FF0010
:10003800453084000A128A114D2183010A128A115F
:1000480025280A128A11D5200A128A118316031349
:100058008501851483120313051505141A30A700AA
:100068005E30A6008630A500A50B3828A60B3828D8
:10007800A70B382800008312031305101A30A700B5
:100088005E30A6008630A500A50B4828A60B482898
:10009800A70B48280000383084005430831203131B
:1000A800A5000408A6000D30A700250884008313C6
:1000B8000008A800A50A2608840028088000A60AC7
:1000C800A70B5928293084004530A5000408A6004C
:1000D8000F30A7002508840083130008A800A50A8C
:1000E8002608840028088000A60AA70B6E28051594
:1000F80038300A128A11AA200A128A110230831291
:100108000313A7000430A600BA30A500A50B8A285F
:10011800A60B8A28A70B8A2800008312031305154B
:1001280029300A128A11AA200A128A11023083126F
:100138000313A7000430A600BA30A500A50BA22817
:10014800A60BA228A70BA22800004F28831203138E
:10015800A400A201A3010511851CC728B028220804
:100168002407F70077088400831300080A128A110D
:1001780030210A128A11013083120313A2070318CF
:10018800A30A0030A30722082407F7007708840091
:1001980083130008031DB32800300A128A11302186
:1001A80008000730831603139F008601811383120A
:1001B8000313901610168B01831603138711071665
:1001C8008712831203139412831603139413831252
:1001D80003131416831603131417831203139411AD
:1001E8001411941014108C119416080054346834A7
:1001F8006934733420346934733420346634613498
:1002080062347334613474340034483465346C3483
:100218006C346F34203477346F3472346C34643413
:10022800213400340C1C23290C100A128A11722163
:100238000A128A110A128A1166210A128A1175088D
:1002480083120313FF0074088A0073088400720E77
:100258008300FE0E7E0E090083120313A1002108FD
:1002680093008316031314183F290A128A117E215A
:100278000A128A1135290A128A115A218312031384
:100288001308F6007608A00008007E088A007F0898
:10029800820049210A128A118000840A04087D0616
:1002A80003190034FF0A0319FE0A4D2983120313A8
:1002B8000C10831603130C108312031310100B1366
:1002C8008B130800831203130C10831603130C10EE
:1002D8008312031310100B138B13080083120313DC
:1002E800941294161308F0007008F1008C119412FF
:1002F80094160800831603130C14831203131014A6
:060308000B178B17080023
:02400E0072FF3F
:00000001FF
