:060000000A128A11122809
:10000800FE00030EF2000408F3000A08F40083124D
:1000180003137F08F5000A128A110B290A128A11A4
:10002800152883010A128A111928831603138501DA
:10003800851683120313850185140A128A113C213F
:100048000A128A110A128A11C7200A128A1101306B
:100058000A128A11EB200A128A110E300A128A112A
:10006800EB200A128A1119300A128A11EB200A129F
:100078008A1123300A128A116F200A128A118312F8
:1000880003138514B701B8013708233E840083138E
:100098000008031962283708233E840083130008E8
:1000A8000A128A1175210A128A1101308312031368
:1000B800B7070318B80A0030B80748280D300A12E5
:1000C8008A1175210A128A110A300A128A117521B9
:1000D8000A128A11312883120313A000A101A20178
:1000E8008510851E80287528013083120313A10707
:1000F8000318A20A0030A2070A128A1125210A123F
:100108008A11F6008312031321082007F7007708E5
:100118008400760883138000000803190800220869
:10012800803AFF0080307F02031D9C281430210292
:1001380003180800782800308A000408840A820717
:100148000034533474346134723474345F34533447
:10015800503449343A340D340A3400347234653436
:100168006134643479342E342E342E340D340A3408
:1001780000345334533450344234553446342034E4
:100188003D34203400340730831603139F00831254
:100198000313901210128B0183160313871585160B
:1001A80007158712831203139412831603139413EB
:1001B80083120313141683160313141783120313DD
:1001C80094111415941014148C11941608008312A9
:1001D8000313A2007030F7007708A00001308312E3
:1001E8000313A207FF30220784000A128A119F20F6
:1001F8000A128A11F7007708A100210803190800DC
:1002080021080A128A1175210A128A11F2280C1C77
:1002180018290C100A128A1160210A128A110A126E
:100228008A1154210A128A11750883120313FF00D8
:1002380074088A0073088400720E8300FE0E7E0E16
:10024800090083120313851E2F293A290A128A11DD
:100258006C210A128A1183160313141C2A290A1204
:100268008A1148218312031313080800003008007C
:100278008316031387178130990024309800903033
:100288008312031398000800831203130C108316BB
:1002980003130C108312031310100B138B13080095
:1002A800831203130C10831603130C108312031309
:1002B80010100B138B130800831203139412941657
:1002C8001308F0007008F1008C11941294160800BD
:1002D800831603130C148312031310140B178B17B4
:1002E8000800F600831203130C1E7629760899007D
:0202F8000800FC
:02400E0072FF3F
:00000001FF
